:070AAC000224000101180003
:1008000075A6E075A7FF75A40175F2FF7F0C120AAB
:1008100088120A647F01120A88120A647F38120A59
:1008200088120A647F80120A88120A647F54120AAE
:100830009A120A647F45120A9A120A647F4D120ABC
:100840009A120A647F50120A9A120A647F52120A9C
:100850009A120A647F41120A9A120A647F54120A99
:100860009A120A647F55120A9A120A647F52120A77
:100870009A120A647F45120A9A120A647F3A120A8F
:100880009A120A64752400752501C2807FF47E01E6
:10089000120A68D280AF807508008F09E580640174
:1008A000750A00F50BE5806402750C00F50DE58016
:1008B0006403750E00F50FE5806404751000F511F2
:1008C000E5806405751200F513E580640675140073
:1008D000F515E5806407751600F517E50B25E0FFB3
:1008E000E50A33FEE5092FFDE5083EFCAE0CE50DFB
:1008F0007802C333CE33CED8F92DFDEC3EFCAE0EDC
:10090000E50F7803C333CE33CED8F92DFDEC3EFC92
:10091000E511C4F8540FC868FFE510C454F048FE50
:10092000ED2FFDEC3EFCAE12E5137805C333CE335C
:10093000CED8F92DFDEC3EFCAE14E5157806C33398
:10094000CE33CED8F92DFDEC3EFCAE16E517780778
:10095000C333CE33CED8F92DF522EC3EF521AF22AC
:100960008F23120A287FE87E03120A687FC0120ACA
:1009700088AF1A120A9A120A64AF1C120A9A120A53
:1009800064AF1E120A9A120A64AF20120A9A120A5F
:0C099000647F43120A9A120A6402088471
:040A64007F327E005F
:100A6800E4FDFCC3ED9FEC9E5015E4FBFA0BBB00C4
:0F0A7800010AEB64414A70F50DBD00010C80E4EA
:010A8700224C
:100A88008FB0C2A5C2A6D2A77F0F7E00120A68C285
:020A9800A72293
:100A9A008FB0D2A5C2A6D2A77F0F7E00120A68C263
:020AAA00A72281
:100A2800EF75F0648475F00A84E5F02430F51AE473
:100A380033F519EF75F06484E5F075F00A84243015
:100A4800F51CE433F51BEF75F00A84E5F02430F566
:0C0A58001EE433F51D751F007520DF2221
:0300000002099C56
:0C099C00787FE4F6D8FD7581260209E39F
:1009A800020800E493A3F8E493A34003F68001F25D
:1009B80008DFF48029E493A3F85407240CC8C33350
:1009C800C4540F4420C8834004F456800146F6DF1F
:1009D800E4800B0102040810204080900AACE47EF9
:1009E800019360BCA3FF543F30E509541FFEE49314
:1009F800A360010ECF54C025E060A840B8E493A3DB
:100A0800FAE493A3F8E493A3C8C582C8CAC583CA05
:100A1800F0A3C8C582C8CAC583CADFE9DEE780BEBD
:010AB3000042
:00000001FF
