:070AA8000224000101180007
:1008000075A5E075A6FF75A74075F5FF7F0C120A68
:1008100072120A567F01120A72120A567F38120AA1
:1008200072120A567F80120A72120A567F54120AF6
:1008300084120A567F45120A84120A567F4D120A04
:1008400084120A567F50120A84120A567F52120AE4
:1008500084120A567F41120A84120A567F54120AE1
:1008600084120A567F55120A84120A567F52120ABF
:1008700084120A567F45120A84120A567F3A120AD7
:1008800084120A56C2B67FF47E01120A5AD2B6AF5B
:10089000C77508008F09E5C76401750A00F50BE507
:1008A000C76402750C00F50DE5C76403750E00F50D
:1008B0000FE5C76404751000F511E5C764057512EE
:1008C00000F513E5C76406751400F515E5C7640760
:1008D000751600F517E50B25E0FFE50A33FEE5097F
:1008E0002FFDE5083EFCAE0CE50D7802C333CE3398
:1008F000CED8F92DFDEC3EFCAE0EE50F7803C333E8
:10090000CE33CED8F92DFDEC3EFCE511C4F8540FE2
:10091000C868FFE510C454F048FEED2FFDEC3EFC26
:10092000AE12E5137805C333CE33CED8F92DFDECE6
:100930003EFCAE14E5157806C333CE33CED8F92D80
:10094000FDEC3EFCAE16E5177807C333CE33CED8A8
:10095000F92DF522EC3EF521AF22120A207FE87E28
:1009600003120A5A7FC0120A72AF1A120A84120ABC
:1009700056AF1C120A84120A56AF1E120A84120ABB
:1009800056AF20120A84120A567F43120A84120AB2
:04099000560208847F
:040A56007F327E006D
:100A5A007C007D64120A96E4FDC3ED9FEC9E50076C
:070A6A000DBD00010C80F23C
:010A71002262
:100A72008FA0C295C296D2977F0F7E00120A5AC2E9
:020A82009722B9
:100A84008FA0D295C296D2977F0F7E00120A5AC2C7
:020A94009722A7
:100A2000EF75F064842430F51AE433F519EF75F0AE
:100A30000A8475F00A84E5F02430F51CE433F51BD4
:100A4000EF75F00A84E5F02430F51EE433F51D75EA
:060A50001F007520DF22EB
:030000000209945E
:0C099400787FE4F6D8FD7581260209DBAF
:100A9600EF8DF0A4A8F0CF8CF0A428CE8DF0A42E74
:020AA600FE222E
:1009A000020800E493A3F8E493A34003F68001F265
:1009B00008DFF48029E493A3F85407240CC8C33358
:1009C000C4540F4420C8834004F456800146F6DF27
:1009D000E4800B0102040810204080900AA8E47E05
:1009E000019360BCA3FF543F30E509541FFEE4931C
:1009F000A360010ECF54C025E060A840B8E493A3E3
:100A0000FAE493A3F8E493A3C8C582C8CAC583CA0D
:100A1000F0A3C8C582C8CAC583CADFE9DEE780BEC5
:010AAF000046
:00000001FF
